:100000000C9434000C945B000C943E000C943E0065
:100010000C943E000C943E000C943E000C943E0068
:100020000C943E000C943E000C943E000C943E0058
:100030000C943E000C943E000C943E000C943E0048
:100040000C943E000C943E000C943E000C943E0038
:100050000C943E000C943E000C943E000C943E0028
:100060000C943E000C943E0011241FBECFEFD8E04C
:10007000DEBFCDBF0E948E000C9493000C94000054
:1000800052985A9AE9E6F0E080818260808383B7D3
:10009000817F846083BF549A5C9878940895E89A2D
:1000A0005C98E09A789483B7816083BF889583B722
:1000B0008E7F83BF08951F920F920FB60F92112467
:1000C0002F933F934F935F936F937F938F939F9360
:1000D000AF93BF93EF93FF93E8985C9A8FE493EC10
:1000E0000197F1F700C000005C988FE493EC019752
:1000F000F1F700C000000E944F00FF91EF91BF9107
:10010000AF919F918F917F916F915F914F913F91AF
:100110002F910F900FBE0F901F9018950E944000D6
:0A0120000E944F00FFCFF894FFCFBC
:00000001FF
