:100000000C9434000C943E000C943E000C943E0082
:100010000C943E000C943E000C9453000C943E0053
:100020000C943E000C943E000C943E000C943E0058
:100030000C943E000C943E000C943E000C943E0048
:100040000C943E000C943E000C943E000C943E0038
:100050000C943E000C943E000C943E000C943E0028
:100060000C943E000C943E0011241FBECFEFD8E04C
:10007000DEBFCDBF0E9467000C946D000C940000A1
:10008000F894549A5C9814BEE0E6F0E088E180832E
:1000900085E48083789483B7817F846083BF83B74E
:1000A000816083BF08951F920F920FB60F921124A3
:1000B0008F935C9A81E28A95F1F700005C987894BE
:1000C00088958F910F900FBE0F901F9018950E94EA
:0E00D0004000889580E090E00895F894FFCFFE
:00000001FF
