:100000000C9434000C9446000C9446000C9446006A
:100010000C9446000C9446000C94FB010C94460092
:100020000C9446000C9446000C9446000C94460038
:100030000C9446000C9446000C9446000C94460028
:100040000C9446000C9446000C9446000C94460018
:100050000C9446000C9446000C9446000C94460008
:100060000C9446000C94460011241FBECFEFD8E03C
:10007000DEBFCDBF21E0A0E0B1E001C01D92A13004
:10008000B207E1F70E9439020C9464030C9400005B
:10009000CF93DF93CDB7DEB72E970FB6F894DEBFC0
:1000A0000FBECDBF8AE290E020E4FC0120838BE20A
:1000B00090E020E4FC01208380E090E0AAE7B4E433
:1000C00089839A83AB83BC8320E030E040E052E434
:1000D00069817A818B819C810E94D902DC01CB01EC
:1000E0008D839E83AF83B88720E030E040E85FE3F4
:1000F0006D817E818F8198850E94580288232CF41F
:1001000081E090E09A8789873FC020E03FEF4FE78A
:1001100057E46D817E818F8198850E94D5021816E3
:100120004CF520E030E040E251E469817A818B8136
:100130009C810E94D902DC01CB01BC01CD010E944F
:100140005C02DC01CB019A8789870FC083E090E0D5
:100150009C878B878B859C850197F1F79C878B8784
:1001600089859A8501979A87898789859A850097D5
:1001700069F714C06D817E818F8198850E945C0231
:10018000DC01CB019A87898789859A859E878D872F
:100190008D859E850197F1F79E878D878AE290E095
:1001A000FC0110828BE290E0FC01108210920001B1
:1001B0002E960FB6F894DEBF0FBECDBFDF91CF9164
:1001C0000895CF93DF93CDB7DEB760970FB6F8945D
:1001D000DEBF0FBECDBF988B8F8788E290E028E20C
:1001E00030E0F9012081422F21E030E00F8402C08D
:1001F000220F331F0A94E2F7242BFC01208380E0B6
:1002000090E0A8ECB2E489839A83AB83BC8320E0BE
:1002100030E040E052E469817A818B819C810E94C8
:10022000D902DC01CB018D839E83AF83B88720E0A8
:1002300030E040E85FE36D817E818F8198850E9488
:10024000580288232CF481E090E09A8789873FC088
:1002500020E03FEF4FE757E46D817E818F819885E5
:100260000E94D50218164CF520E030E040E251E43F
:1002700069817A818B819C810E94D902DC01CB014A
:10028000BC01CD010E945C02DC01CB019A87898709
:100290000FC083E090E09C878B878B859C850197BE
:1002A000F1F79C878B8789859A8501979A8789873B
:1002B00089859A85009769F714C06D817E818F8149
:1002C00098850E945C02DC01CB019A878987898529
:1002D0009A859E878D878D859E850197F1F79E87EC
:1002E0008D8788E290E028E230E0F9012081422FFA
:1002F00021E030E00F8402C0220F331F0A94E2F79E
:1003000020952423FC01208360960FB6F894DEBF6D
:100310000FBECDBFDF91CF910895CF93DF93CDB7BF
:10032000DEB784E290E0FC01108287E290E0FC01FD
:1003300010828AE290E0FC01108285E290E0FC01EC
:10034000108288E290E0FC0110828BE290E0FC01D8
:100350001082DF91CF910895CF93DF93CDB7DEB7B1
:1003600084E590E0FC011082A89580E690E028E109
:10037000FC01208387E490E08093600082E090E0BD
:100380000E94E100A895DF91CF910895CF93DF936C
:10039000CDB7DEB7F8940E94AC01789483E590E085
:1003A00023E530E0F90120812160FC01208388955C
:1003B000DF91CF910895CF93DF93CDB7DEB780E57E
:1003C00090E0FC0110828AE790E0FC01108210921C
:1003D000000187E290E02FEFFC01208383E590E0AD
:1003E00023E530E0F9012081217F2460FC01208396
:1003F000DF91CF9108951F920F9200905F000F92AE
:1004000011242F933F938F939F93EF93FF93CF9359
:10041000DF93CDB7DEB788E10FB6F8948093600024
:10042000109260000FBE83E590E023E530E0F90113
:1004300020812E7FFC01208388E290E028E230E0DA
:10044000F901308128E02327FC01208380910001FD
:100450008F5F80930001DF91CF91FF91EF919F918A
:100460008F913F912F910F9000925F000F901F90FE
:100470001895CF93DF93CDB7DEB784E590E0FC010C
:10048000108288E10FB6F8948093600010926000AB
:100490000FBE84E090E00E94E1000E94DB018091A9
:1004A0000001882311F00E9448000E94C601F7CF86
:1004B0002FD008F481E0089557D088F09F5790F02E
:1004C000B92F9927B751A0F0D1F0660F771F881F79
:1004D000991F1AF0BA95C9F712C0B13081F05ED0F9
:1004E000B1E008955BC0672F782F8827B85F39F097
:1004F000B93FCCF3869577956795B395D9F73EF4D8
:1005000090958095709561957F4F8F4F9F4F08957F
:10051000990F0008550FAA0BE0E8FEEF1616170614
:10052000E807F907C0F012161306E407F50798F07C
:10053000621B730B840B950B39F40A2661F0232B95
:10054000242B252B21F408950A2609F4A140A69511
:100550008FEF811D811D089557FD9058440F551F41
:1005600059F05F3F71F04795880F97FB991F61F035
:100570009F3F79F087950895121613061406551FAC
:10058000F2CF4695F1DF08C0161617061806991F18
:10059000F1CF86957105610508940895E894BB270D
:1005A00066277727CB0197F90895B2DF08F48FEF1C
:1005B00008950BD078C069D028F06ED018F095233C
:1005C00009F05AC05FC01124EACFC6DFA0F3959F9F
:1005D000D1F3950F50E0551F629FF001729FBB272A
:1005E000F00DB11D639FAA27F00DB11DAA1F649FD6
:1005F0006627B00DA11D661F829F2227B00DA11D89
:10060000621F739FB00DA11D621F839FA00D611D0E
:10061000221F749F3327A00D611D231F849F600D2F
:10062000211D822F762F6A2F11249F5750408AF068
:10063000E1F088234AF0EE0FFF1FBB1F661F771FF4
:10064000881F91505040A9F79E3F510570F014C08B
:10065000A6CF5F3FECF3983EDCF3869577956795E0
:10066000B795F795E7959F5FC1F7FE2B880F911D12
:100670009695879597F9089597F99F6780E870E0B8
:1006800060E008959FEF80EC089500240A94161608
:10069000170618060906089500240A941216130670
:1006A000140605060895092E0394000C11F48823FE
:1006B00052F0BB0F40F4BF2B11F460FF04C06F5F1A
:0C06C0007F4F8F4F9F4F0895F894FFCF9D
:00000001FF
