:100000000C9434000C9451000C9451000C94510049
:100010000C9451000C9451000C9451000C9451001C
:100020000C9451000C9451000C9451000C9451000C
:100030000C9451000C9451000C9451000C945100FC
:100040000C9451000C9451000C9451000C945100EC
:100050000C9451000C9451000C9451000C945100DC
:100060000C9451000C94510011241FBECFEFD8E026
:10007000DEBFCDBF11E0A0E0B1E0ECEBF3E002C0E9
:1000800005900D92AA30B107D9F721E0AAE0B1E0BE
:1000900001C01D92A031B207E1F70E9453000C94F9
:1000A000DC010C9400000E94C401089526982E9A49
:1000B00010920B0110920C01089580910C0188237D
:1000C00041F01E9B19C010920C0110920B0180E0B0
:1000D00008951E9B06C010920B0110920C0180E047
:1000E000089580910B018F5F80930B018B3030F06E
:1000F00081E080930C01089580E0089580E00895E8
:1001000084B1836084B92898299A0E947A0108955D
:100110001F93CF93DF93EB01142F29988F71806287
:100120000E949401612FCE010E948501299ADF91DE
:10013000CF911F910895CF93DF931F92CDB7DEB774
:10014000698341E0BE016F5F7F4F0E9488000F907E
:10015000DF91CF910895682F656580E00E949B0034
:10016000089580910E018111FCCF299881EE0E94A3
:100170009401299A299882EE0E949401299A08955F
:100180001F93CF93DF93CDB7DEB72A970FB6F894BE
:10019000DEBF0FBECDBF182F95E0E0E0F1E0DE013D
:1001A000119601900D929A95E1F795E0E5E0F1E066
:1001B000DE01169601900D929A95E1F762E085E0D6
:1001C0000E949B0064E081E10E949B0066E086E063
:1001D0000E949B0060E081E00E949B0061E082E061
:1001E0000E949B0063E083E00E949B00112379F052
:1001F00045E0BE016F5F7F4F8AE00E94880045E0C6
:10020000BE016A5F7F4F80E10E9488000EC045E01A
:10021000BE016F5F7F4F80E10E94880045E0BE0114
:100220006A5F7F4F8AE00E94880060E787E00E9453
:100230009B000E94B10010920E0183E00E94AB006F
:10024000289A2A960FB6F894DEBF0FBECDBFDF9175
:10025000CF911F910895CF93DF93EC0180910E0110
:100260008111FCCF81E080930E0182E00E94AB00FF
:1002700060E787E00E949B0082E38A95F1F7299866
:1002800081EE0E949401299A299880EA0E949401A3
:1002900064E0CE010E948501299A289A85E08A951A
:1002A000F1F7289810920E0183E00E94AB00299A82
:1002B0008BE28A95F1F70000DF91CF910895CF93FB
:1002C000DF9300D000D0CDB7DEB7FB019181208154
:1002D000392F322789832A839B8383278C83CE01FE
:1002E00001960E942B010F900F900F900F90DF91BD
:1002F000CF91089584B1837C84B984B18C6284B930
:1003000081E58CBD81E08DBD0895662361F0282FC5
:10031000E82FF92F81918EBD0DB407FEFDCF8E2FF2
:10032000821B8617B8F308958EBD0DB407FEFDCF6E
:100330008EB5089510920F010E9456000E94800011
:1003400083EC99E00197F1F700C0000081E00E9482
:10035000C000509A589808950E945D00882399F033
:10036000589A80910F0191E0980F90930F010E948D
:10037000C9012FE986E891E0215080409040E1F7E3
:1003800000C00000589808950E949A010E94AC0194
:10039000FDCFCF93DF9300D0CDB7DEB789838A83BB
:1003A000BE016F5F7F4F81E00E945F0181E00F908F
:0C03B0000F90DF91CF910895F894FFCFDB
:0A03BC00F0F0F0F0F0F1F1F1F1F1D2
:00000001FF
