:100000000C9434000C9451000C9451000C94510049
:100010000C9451000C9451000C9451000C9451001C
:100020000C9451000C9451000C9451000C9451000C
:100030000C9451000C9451000C9451000C945100FC
:100040000C9451000C9451000C9451000C945100EC
:100050000C9451000C9451000C9451000C945100DC
:100060000C9451000C94510011241FBECFEFD8E026
:10007000DEBFCDBF11E0A0E0B1E0E6E4F6E002C0F3
:1000800005900D92AA31B107D9F721E0AAE1B1E0BC
:1000900001C01D92A332B207E1F70E9431010C9416
:1000A00021030C94000089EF90E00197F1F700C064
:1000B00000008FEF8BB988B1837C88B908958FEFEA
:1000C0008AB987B18C6387B90E94530008958F92D3
:1000D0009F92AF92BF92CF92DF92EF92FF920F93D7
:1000E0001F93CF93DF93EA01A82EA694A694A6941B
:1000F000A6948F70E62EE694E694E694E6946F70EC
:100100002097A9F1812C912C2A2D30E0A901405093
:100110005F4F5A0190E0FC01E050FF4F6F018E2DC0
:1001200090E09C0120503F4F7901062F10E00050D5
:100130001F4F0E945300F50180818BB9459A0E94A0
:100140005300F60180818BB9449A0E945300F70155
:1001500080818BB9439A0E945300F80180818BB94A
:10016000429AF4E08F0E911C8C169D0610F3DF91DD
:10017000CF911F910F91FF90EF90DF90CF90BF90A4
:10018000AF909F908F900895FB01883E23E09207E7
:1001900048F040E0885E93404F5F883E23E092073E
:1001A000C8F701C040E08436910540F050E0845625
:1001B00091095F5F84369105D0F701C050E08A3025
:1001C000910538F060E00A976F5F8A309105D8F7A3
:1001D00001C060E0009739F09C01215031092115E0
:1001E0003105D9F701C080E0838362835183408366
:1001F0000895CF93DF9300D000D0CDB7DEB7BE0116
:100200006F5F7F4F0E94C4000E945300E981F0E0BD
:10021000E050FF4F80818BB9459A0E945300EA81DC
:10022000F0E0E050FF4F80818BB9449A0E94530068
:10023000EB81F0E0E050FF4F80818BB9439A0E9440
:100240005300EC81F0E0E050FF4F80818BB9429A7F
:100250000E9453000F900F900F900F90DF91CF915D
:1002600008950E94E602089526982E9A10921B0186
:1002700010921C01089584B1836084B90E94EB023E
:100280002898299A089580911E01811107C0299804
:100290008FEF0E941B03299A8074089580E00895CF
:1002A0001F93CF93DF93D62F172FC42F442349F0EA
:1002B000462FE62FF72F3FEF31932E2F241B2C17BD
:1002C000D8F393E09A95F1F70000299893E09A9576
:1002D000F1F700008F710E941B0383E08A95F1F70C
:1002E00000004C2F6D2F712F8D2F912F0E94F9023E
:1002F00093E09A95F1F70000299ADF91CF911F9131
:1003000008951F93CF93DF93EB01142F29988F71DA
:1003100080620E941B03612FCE010E940C03299A68
:10032000DF91CF911F910895CF93DF931F92CDB7A7
:10033000DEB7698341E0BE016F5F7F4F0E9481019C
:100340000F90DF91CF91089580911E018111FCCF14
:10035000299881EE0E941B03299A299882EE0E9417
:100360001B03299A0895CF93DF93EC01299881E626
:100370000E941B0344E0BE01CE010E94F902299AAB
:1003800060E787E00E949401DF91CF91089529985A
:100390008F710E941B038FEF0E941B03299A0895FF
:1003A000CF93C82F60E084E00E94940162E085E072
:1003B0000E94940164E081E10E94940166E086E07D
:1003C0000E94940160E081E00E94940161E082E07B
:1003D0000E94940163E083E00E94940160E08CE15C
:1003E0000E949401CC2369F045E065E171E08AE068
:1003F0000E94810145E060E171E080E10E9481019D
:100400000CC045E065E171E080E10E94810145E0BA
:1004100060E171E08AE00E94810180E00E94C701F2
:10042000682F636780E00E94940160E787E00E9484
:1004300094010E94A40110921E01289ACF91089560
:10044000FF920F931F93CF93DF9300D000D0CDB7CF
:10045000DEB7F82E8B01FB01108211820E9443014E
:100460008823C9F0CE0101960E94B30189818F11C2
:100470000EC08A81F8268B81F8268C81F81209C07B
:100480008A81F80180838B81818381E005C080E0CF
:1004900003C080E001C080E00F900F900F900F909C
:1004A000DF91CF911F910F91FF900895BF92CF924E
:1004B000DF92EF92FF920F931F93CF93DF9300D0C1
:1004C00000D000D0CDB7DEB70E943B0183EC99E0AD
:1004D0000197F1F700C0000080E00E94D0010E9467
:1004E00034010E945F00389A4098109222011092C5
:1004F0002101B12CE12CD12CC12C35C00E9453001C
:1005000096EF9F0D923018F090E1F9120AC045E085
:10051000BE016E5F7F4F8F2D0E9450019E81998397
:1005200007C041E0BE016F5F7F4F8F2D0E945001D9
:10053000EF1002C0C98001C0D980F3942F2D30E0A4
:1005400020173107DCF240E951E06D2D8C2D0E941F
:1005500067000E9453006894EE24E1F8EB0C88E1F8
:10056000E81659F0BE2C2E2D30E089010E5F1F4F8A
:100570002017310744F7FE2CC1CF26960FB6F8940A
:10058000DEBF0FBECDBFDF91CF911F910F91FF90C6
:10059000EF90DF90CF90BF90089507C060E080910A
:1005A0002101909122010E94F9006FE171E081E048
:1005B0000E942002882391F380911F01882329F053
:1005C00090E0909322018093210108950E945602A9
:1005D0000E94CD02FDCF249884B18C6284B985B18C
:1005E000846185B985B1877D85B980E58CBD1DBCE9
:1005F0000895442381F0282FA62FB72FE82FF92F35
:1006000081918EBD0DB407FEFDCF8EB58D938E2FDB
:10061000821B8417A8F30895662361F0282FE82F22
:10062000F92F81918EBD0DB407FEFDCF8E2F821B59
:100630008617B8F308958EBD0DB407FEFDCF8EB5B5
:060640000895F894FFCFBD
:1006460084B7C292B19888B68090A089CC83C8E856
:0A065600F1F1F1F1F1F0F0F0F0F035
:00000001FF
