S01000006E72665F70696E672E73726563C1
S11300000C9434000C94B2040C9451000C945100E0
S11300100C9451000C9451000C942A040C9451003B
S11300200C9451000C9451000C9451000C94510008
S11300300C9451000C9451000C94D5030C94510071
S11300400C9451000C9451000C9451000C945100E8
S11300500C9451000C9451000C9451000C945100D8
S11300600C9451000C94510011241FBECFEFD8E022
S1130070DEBFCDBF11E0A0E0B1E0EAE0FAE002C0EB
S113008005900D92AC31B107D9F721E0ACE1B1E0B4
S113009001C01D92A832B207E1F70E9430010C940E
S11300A003050C94000089EF90E00197F1F700C07C
S11300B000001BB888B1837C88B908958FEF8AB992
S11300C087B18C6387B90E94530008958F929F92E1
S11300D0AF92BF92CF92DF92EF92FF920F931F9352
S11300E0CF93DF93EA01A82EA694A694A694A6948F
S11300F08F70E62EE694E694E694E6946F7020976B
S1130100A9F1812C912C2A2D30E0A90140505F4F98
S11301105A0190E0FC01E050FF4F6F018E2D90E0FA
S11301209C0120503F4F7901062F10E000501F4FD3
S11301300E945300F50180818BB9459A0E945300B7
S1130140F60180818BB9449A0E945300F7018081A3
S11301508BB9439A0E945300F80180818BB9429A6B
S1130160F4E08F0E911C8C169D0610F3DF91CF9155
S11301701F910F91FF90EF90DF90CF90BF90AF90C1
S11301809F908F900895FB01883E23E0920748F0EA
S113019040E0885E93404F5F883E23E09207C8F7B3
S11301A001C040E08436910540F050E08456910946
S11301B05F5F84369105D0F701C050E08A30910525
S11301C038F060E00A976F5F8A309105D8F701C074
S11301D060E0009739F09C01215031092115310567
S11301E0D9F701C080E083836283518340830895FB
S11301F0CF93DF9300D000D0CDB7DEB7BE016F5FE1
S11302007F4F0E94C3000E945300E981F0E0E05058
S1130210FF4F80818BB9459A0E945300EA81F0E038
S1130220E050FF4F80818BB9449A0E945300EB81C8
S1130230F0E0E050FF4F80818BB9439A0E94530055
S1130240EC81F0E0E050FF4F80818BB9429A0E942C
S113025053000F900F900F900F90DF91CF9108955E
S11302600E945304089584B1836084B90E945604A3
S11302702898299A089580911F01811107C029980F
S11302808FEF0E948604299A8074089580E008956F
S11302901F93CF93DF93EB01142F29988F71806202
S11302A00E948604612FCE010E947704299ADF916F
S11302B0CF911F910895CF93DF931F92CDB7DEB7EF
S11302C0698341E0BE016F5F7F4F0E9448010F9038
S11302D0DF91CF91089580911F018111FCCF29985E
S11302E081EE0E948604299A299882EE0E9486044F
S11302F0299A0895CF93DF93EC01299881E60E940F
S1130300860446E0BE01CE010E946404299A60E797
S113031087E00E945B01DF91CF91089529988F7146
S11303200E9486048FEF0E948604299A0895CF9331
S1130330C82F60E084E00E945B0162E085E00E94D7
S11303405B0166E081E10E945B0166E086E00E9459
S11303505B0160E081E00E945B0161E082E00E9459
S11303605B0163E083E00E945B0160E08CE10E943A
S11303705B01CC2369F045E065E171E08AE00E940D
S1130380480145E060E171E080E10E9448010CC051
S113039045E065E171E080E10E94480145E060E1EB
S11303A071E08AE00E94480180E00E948E01682F7B
S11303B0636780E00E945B0160E787E00E945B0165
S11303C00E946B0110921F01289ACF910895CF9338
S11303D0DF93EC0180911F018111FCCF28980E94CA
S11303E08E01682F626780E00E945B0180E00E94BA
S11303F08E018E78682F606780E00E945B0160E761
S113040087E00E945B01299881EE0E948604299A64
S113041082E38A95F1F7299880EA0E94860466E0CF
S1130420CE010E947704299A289A85E08A95F1F7EB
S1130430289880E00E948E01682F6D7F80E00E94E2
S11304405B0180E00E948E01682F636780E00E9458
S11304505B0160E787E00E945B010E946B01289AC0
S113046082E38A95F1F7299ADF91CF91089528982C
S113047080E00E948E01682F6D7F80E00E945B0106
S1130480089580E00E948E01682F636780E00E94D7
S11304905B0160E787E00E945B010E946B01289A80
S11304A082E38A95F1F70895FC0195E080E02191BB
S11304B082279150E1F708950F931F93CF93DF9311
S11304C0E801888369834A83F90180818B83818170
S11304D08C83C8010E9454028D83DF91CF911F91B8
S11304E00F9108950F931F93CF93DF93CDB7DEB78A
S11304F028970FB6F894DEBF0FBECDBF90911A01B6
S11305009F8398878E010F5F1F4F9E01295F3F4F86
S11305100E945C02C8010E94E7014CE050E06A813D
S113052089810E94660028960FB6F894DEBF0FBE3C
S1130530CDBFDF91CF911F910F910895EF92FF925C
S11305400F931F93CF93DF9300D000D000D0CDB78B
S1130550DEB7F82E8B0191E090931C010E943B01C1
S1130560882311F1CE0101960E947A01EA80EF10EE
S113057017C0CE0101960E9454029E81981312C0A6
S11305808C81F80180838D818183F6EAFA95F1F7F5
S113059000C04B8169818E2D0E94720281E005C0EA
S11305A080E003C080E001C080E010921C01269628
S11305B00FB6F894DEBF0FBECDBFDF91CF911F9170
S11305C00F91FF90EF90089580911C010895DF92A0
S11305D0EF92FF920F931F93CF93DF9300D000D03D
S11305E000D0CDB7DEB7D82E8B017A010E943B0133
S11305F0882399F0CE0101960E947A018A818D1197
S11306000AC08C81F80180838D8181838B81F701FD
S1130610808381E003C080E001C080E026960FB6AD
S1130620F894DEBF0FBECDBFDF91CF911F910F9124
S1130630FF90EF90DF900895DF92EF92FF920F9377
S11306401F93CF93DF93CDB7DEB729970FB6F894F6
S1130650DEBF0FBECDBFF82E9A0180911D01883CEC
S113066010F010921D01E0901D0181E08E0D809329
S11306701D018E010F5F1F4F4E2D8F2D0E945C02B6
S11306801AE001E0D12CCE0101960E94E701409AC4
S113069083ED90E30197F1F700C00000409883EDEB
S11306A090E30197F1F700C00000AE01475F5F4F90
S11306B0BE01695F7F4F8F2D0E94E702882371F08E
S11306C090911A01202F8F8189132D2D88858913EC
S11306D005C0222319F08985E81621F0115099F6F6
S11306E080E001C081E029960FB6F894DEBF0FBE0A
S11306F0CDBFDF91CF911F910F91FF90EF90DF90CD
S1130700089514BEE0E6F0E088E1808385E4808308
S1130710A8950895909321018093200110922301BC
S11307201092220116BC84B5826084BD85B58560B3
S113073085BD8AE087BDEEE6F0E08081826080833B
S11307407894089510926E0014BC15BC08950E940C
S1130750A2030E9437020E94530010927A000E9462
S11307608103789488950895F894389A40980E9463
S1130770330183EC99E00197F1F700C0000080E0B9
S11307800E9497010E945E00109227011092260198
S11307900E948103789483B7817F846083BF83B789
S11307A0816083BF0E94A70308951F920F920FB622
S11307B00F9211242F933F934F935F936F937F93E3
S11307C08F939F93AF93BF93EF93FF9380912201F5
S11307D0909123010196909323018093220120910B
S11307E02201309123018091200190912101281749
S11307F0390740F00E94A2030E94E4028111FCCF59
S11308000E94A703FF91EF91BF91AF919F918F91A8
S11308107F916F915F914F913F912F910F900FBEF8
S11308200F901F901895EC010E94A20388818823E1
S113083029F090E0909327018093260188EC90E0C2
S11308400E948A0360E080912601909127010E9412
S1130850F800F8CF1F920F920FB60F92112488E17F
S11308600FB6F89480936000109260000FBE8CE085
S113087090E00E948A030E944102409A81E28A9594
S1130880F1F70000409804C081E28A95F1F7000076
S113089064E271E081E00E949E028823A9F384E26D
S11308A091E00E9413040E94B403FFCF249884B102
S11308B08C6284B985B1846185B985B1877D85B938
S11308C080E58CBD1DBC0895442381F0282FA62FFC
S11308D0B72FE82FF92F81918EBD0DB407FEFDCF00
S11308E08EB58D938E2F821B8417A8F308956623EB
S11308F061F0282FE82FF92F81918EBD0DB407FEEA
S1130900FDCF8E2F821B8617B8F308958EBD0DB4CC
S113091007FEFDCF8EB50895CF93DF9300D0CDB7FA
S1130920DEB71A828983AE014F5F5F4F61E080E0DA
S11309300E941C0391E0811101C090E0892F0F9067
S11309400F90DF91CF9108950E943702E89A409862
S1130950E09A789483B7816083BF889583B78E7F4C
S113096083BF08951F920F920FB60F9211242F93F5
S11309703F934F935F936F937F938F939F93AF9323
S1130980BF93EF93FF93E89880911E0191E0980F35
S113099090931E010E948C048823B9F0409A87EA40
S11309A091E60197F1F700C00000409887EA91E6CC
S11309B00197F1F700C00000409A87EA91E6019799
S11309C0F1F700C0000040980BC0409A9FE52AEE62
S11309D080E0915020408040E1F700C00000409842
S11309E00E94A404FF91EF91BF91AF919F918F91C9
S11309F07F916F915F914F913F912F910F900FBE17
S10D0A000F901F901895F894FFCF93
S1130A0A84B7C292B19888B68090A089CC83C8E88A
S10F0A1AF1F1F1F1F1F0F0F0F0F08100E6
S9030000FC
