:100000000C9434000C9451000C9451000C94510049
:100010000C9451000C9451000C9451000C9451001C
:100020000C9451000C9451000C9451000C9451000C
:100030000C9451000C9451000C9451000C945100FC
:100040000C9451000C9451000C9451000C945100EC
:100050000C9451000C9451000C9451000C945100DC
:100060000C9451000C94510011241FBECFEFD8E026
:10007000DEBFCDBF11E0A0E0B1E0EEE9F5E002C0E7
:1000800005900D92AA31B107D9F721E0AAE1B1E0BC
:1000900001C01D92A032B207E1F70E94C4000C9487
:1000A000CD020C94000089EF90E00197F1F700C0B9
:1000B00000008FEF8BB988B1837C88B908958FEFEA
:1000C0008AB987B18C6387B90E94530008958F92D3
:1000D0009F92AF92BF92CF92DF92EF92FF920F93D7
:1000E0001F93CF93DF93EA01A82EA694A694A6941B
:1000F000A6948F70E62EE694E694E694E6946F70EC
:100100002097A9F1812C912C2A2D30E0A901405093
:100110005F4F5A0190E0FC01E050FF4F6F018E2DC0
:1001200090E09C0120503F4F7901062F10E00050D5
:100130001F4F0E945300F50180818BB9459A0E94A0
:100140005300F60180818BB9449A0E945300F70155
:1001500080818BB9439A0E945300F80180818BB94A
:10016000429AF4E08F0E911C8C169D0610F3DF91DD
:10017000CF911F910F91FF90EF90DF90CF90BF90A4
:10018000AF909F908F9008950E94C802089526987E
:100190002E9A10921B0110921C01089580911C014F
:1001A000882341F01E9B19C010921C0110921B0164
:1001B00080E008951E9B06C010921B0110921C0146
:1001C00080E0089580911B018F5F80931B018B302D
:1001D00030F081E080931C01089580E0089580E074
:1001E000089584B1836084B90E9417022898299ADF
:1001F00008951F93CF93DF93D62F172FC42F442337
:1002000049F0462FE62FF72F3FEF31932E2F241B77
:100210002C17D8F393E09A95F1F70000299893E012
:100220009A95F1F700008F710E94470283E08A954A
:10023000F1F700004C2F6D2F712F8D2F912F0E9401
:10024000250293E09A95F1F70000299ADF91CF916A
:100250001F9108951F93CF93DF93EB01142F2998DB
:100260008F7180620E944702612FCE010E94380286
:10027000299ADF91CF911F910895CF93DF931F9219
:10028000CDB7DEB7698341E0BE016F5F7F4F0E944B
:100290002A010F90DF91CF910895682F606780E069
:1002A0000E943D01089580911E018111FCCF299883
:1002B00081EE0E944702299A299882EE0E94470205
:1002C000299A08951F93CF93DF93CDB7DEB72A976E
:1002D0000FB6F894DEBF0FBECDBF182F95E0E0E15A
:1002E000F1E0DE01119601900D929A95E1F795E00B
:1002F000E5E1F1E0DE01169601900D929A95E1F7A5
:1003000060E084E00E943D0162E085E00E943D01E2
:1003100064E081E10E943D0166E086E00E943D01CB
:1003200060E081E00E943D0161E082E00E943D01C9
:1003300063E083E00E943D01112379F045E0BE01B6
:100340006F5F7F4F8AE00E942A0145E0BE016A5F2D
:100350007F4F80E10E942A010EC045E0BE016F5F21
:100360007F4F80E10E942A0145E0BE016A5F7F4F16
:100370008AE00E942A0160E787E00E943D010E9416
:10038000530110921E0183E00E944D01289A2A9683
:100390000FB6F894DEBF0FBECDBFDF91CF911F9196
:1003A00008952898299881EE0E944702299A299851
:1003B00082EE0E944702299A80E00E944D018BE262
:1003C0008A95F1F7000082E00E944D019BE29A9528
:1003D000F1F70000299880EA0E94470284E10E9418
:1003E000470284E10E94470284E10E94470284E1BF
:1003F0000E944702299A289A83E08A95F1F7000023
:10040000289883E00E944D0160E787E00E943D014B
:10041000289A9BE29A95F1F70000409A87EA91E6C4
:100420000197F1F700C000004098299A0895249898
:1004300084B18C6284B985B1846185B985B1877DC9
:1004400085B980E58CBD1DBC0895442381F0282F1B
:10045000A62FB72FE82FF92F81918EBD0DB407FE7F
:10046000FDCF8EB58D938E2F821B8417A8F3089530
:10047000662361F0282FE82FF92F81918EBD0DB4EE
:1004800007FEFDCF8E2F821B8617B8F308958EBD11
:100490000DB407FEFDCF8EB50895BF92CF92DF92C7
:1004A000EF92FF920F931F93CF93DF9300D000D072
:1004B00000D0CDB7DEB710921F010E94C7000E9486
:1004C000F10083EC99E00197F1F700C0000081E0B2
:1004D0000E946201389A40980E945F00B12CE12C82
:1004E000D12CC12C35C00E94530096EF9F0D923045
:1004F00018F090E1F9120AC045E0BE016E5F7F4F2F
:100500008F2D0E94F9009E81998307C041E0BE01B2
:100510006F5F7F4F8F2D0E94F900EF1002C0C980DE
:1005200001C0D980F3942F2D30E020173107DCF281
:1005300040E951E06D2D8C2D0E9467000E94530010
:100540006894EE24E1F8EB0C88E1E81659F0BE2C33
:100550002E2D30E089010E5F1F4F2017310744F721
:10056000FE2CC1CF26960FB6F894DEBF0FBECDBFCE
:10057000DF91CF911F910F91FF90EF90DF90CF907F
:10058000BF9008950E94CE0081110E94D10108956C
:0E0590000E944D020E94C202FDCFF894FFCFE0
:10059E0084B7C292B19888B68090A089CC83C8E8FF
:0A05AE00F0F0F0F0F0F1F1F1F1F1DE
:00000001FF
