:100000000C9434000C9451000C9451000C94510049
:100010000C9451000C9451000C9451000C9451001C
:100020000C9451000C9451000C9451000C9451000C
:100030000C9451000C9451000C9451000C945100FC
:100040000C9451000C9451000C9451000C945100EC
:100050000C9451000C9451000C9451000C945100DC
:100060000C9451000C94510011241FBECFEFD8E026
:10007000DEBFCDBF11E0A0E0B1E0ECE3F3E002C0F1
:1000800005900D92AA30B107D9F721E0AAE0B1E0BE
:1000900001C01D92AB30B207E1F70E9453000C94EF
:1000A0009C010C9400000E947001089584B183604B
:1000B00084B92898299A0E942B0108951F93CF9301
:1000C000DF93EB01142F29988F7180620E94450104
:1000D000612FCE010E943601299ADF91CF911F91A5
:1000E0000895CF93DF931F92CDB7DEB7698341E0C8
:1000F000BE016F5F7F4F0E945E000F90DF91CF9136
:100100000895682F656580E00E94710008958091D0
:100110000A018111FCCF299881EE0E944501299A9C
:10012000299882EE0E944501299A0895CF93DF9382
:10013000CDB7DEB72A970FB6F894DEBF0FBECDBF9E
:1001400085E0E0E0F1E0DE01119601900D928A95E4
:10015000E1F785E0E5E0F1E0DE01169601900D9211
:100160008A95E1F762E085E00E94710064E081E138
:100170000E94710066E086E00E94710060E081E00C
:100180000E94710061E082E00E94710063E083E000
:100190000E94710045E0BE016F5F7F4F8AE00E94C0
:1001A0005E0045E0BE016A5F7F4F80E10E945E0015
:1001B00060E787E00E9471000E94870010920A01A8
:1001C00083E00E948100289A2A960FB6F894DEBF39
:1001D0000FBECDBFDF91CF910895CF93DF93EC0198
:1001E00080910A018111FCCF289881E080930A0157
:1001F00082E00E948100299881EE0E944501299A9F
:10020000299880EA0E94450164E0CE010E943601EF
:10021000299A289A83E00E948100DF91CF91089566
:10022000CF93DF9300D000D0CDB7DEB7FB01918133
:100230002081392F322789832A839B8383278C83CC
:10024000CE0101960E94ED000F900F900F900F903D
:10025000DF91CF91089584B1837C84B984B18C629D
:1002600084B981E58CBD81E08DBD0895662361F080
:10027000282FE82FF92F81918EBD0DB407FEFDCFF9
:100280008E2F821B8617B8F308958EBD0DB407FE1E
:10029000FDCF8EB5089522982A9A0E94560083ECCD
:1002A00099E00197F1F700C000000E9496000895C0
:1002B000CF93DF93EC0183B162E00E947D0188233C
:1002C000D1F3CE010E9487012FE986E891E0215009
:1002D00080409040E1F700C00000DF91CF91089589
:1002E000CF93DF931F92CDB7DEB719820E944B01E7
:1002F000CE0101960E945801FBCF90E002C0959577
:1003000087956A95E2F721E0822781700895CF935F
:10031000DF9300D0CDB7DEB7FC01818189831A82DB
:10032000BE016F5F7F4F80E00E94100181E00F905F
:0C0330000F90DF91CF910895F894FFCF5B
:0A033C00F0F0F0F0F0F1F1F1F1F152
:00000001FF
