S01000006E72665F70696E672E73726563C1
S11300000C9434000C9435040C9451000C9451005D
S11300100C9451000C9451000C94BA030C945100AC
S11300200C9451000C9451000C9451000C94510008
S11300300C9451000C9451000C946B030C945100DB
S11300400C9451000C9451000C9451000C945100E8
S11300500C9451000C9451000C9451000C945100D8
S11300600C9451000C94510011241FBECFEFD8E022
S1130070DEBFCDBF11E0A0E0B1E0E0E1F9E002C0F5
S113008005900D92AC31B107D9F721E0ACE1B1E0B4
S113009001C01D92AB32B207E1F70E94D3000C9469
S11300A086040C94000089EF90E00197F1F700C0FA
S11300B000001BB888B1837C88B908958FEF8AB992
S11300C087B18C6387B90E9453000895FB01883E71
S11300D023E0920748F040E0885E93404F5F883EFB
S11300E023E09207C8F701C040E08436910540F050
S11300F050E0845691095F5F84369105D0F701C0C2
S113010050E08A30910538F060E00A976F5F8A30DA
S11301109105D8F701C060E0009739F09C012150A7
S1130120310921153105D9F701C080E08383628349
S1130130518340830895CF93DF9300D000D0CDB78F
S1130140DEB7BE016F5F7F4F0E9466000E945300BE
S1130150E981F0E0E050FF4F80818BB9459A0E941D
S11301605300EA81F0E0E050FF4F80818BB9449A5C
S11301700E945300EB81F0E0E050FF4F80818BB987
S1130180439A0E945300EC81F0E0E050FF4F8081DD
S11301908BB9429A0E9453000F900F900F900F90CA
S11301A0DF91CF9108950E94D603089526982E9A40
S11301B010921F0110922001089584B1836084B9C4
S11301C00E94D9032898299A0895809122018111C7
S11301D007C029988FEF0E940904299A8074089512
S11301E080E008951F93CF93DF93EB01142F299898
S11301F08F7180620E940904612FCE010E94FA036C
S1130200299ADF91CF911F910895CF93DF931F9285
S1130210CDB7DEB7698341E0BE016F5F7F4F0E94B7
S1130220F2000F90DF91CF91089580912201811106
S1130230FCCF299881EE0E940904299A299882EE1C
S11302400E940904299A0895CF93DF93EC01299819
S113025081E60E94090446E0BE01CE010E94E70344
S1130260299A60E787E00E940501DF91CF91089504
S113027029988F710E9409048FEF0E940904299A1A
S11302800895CF93C82F60E084E00E94050162E0E6
S113029085E00E94050166E081E10E94050166E0B7
S11302A086E00E94050160E081E00E94050161E0B2
S11302B082E00E94050163E083E00E94050160E0A2
S11302C08CE10E940501CC2369F045E065E171E011
S11302D08AE00E94F20045E060E171E080E10E9462
S11302E0F2000CC045E065E171E080E10E94F2009B
S11302F045E060E171E08AE00E94F20080E00E9443
S11303003801682F636780E00E94050160E787E099
S11303100E9405010E94150110922201289ACF9192
S11303200895CF93DF93EC01809122018111FCCFDA
S113033028980E943801682F626780E00E940501B6
S113034080E00E9438018E78682F606780E00E9408
S1130350050160E787E00E940501299881EE0E946B
S11303600904299A82E38A95F1F7299880EA0E9480
S1130370090466E0CE010E94FA03299A289A85E0CE
S11303808A95F1F7289880E00E943801682F6D7FE4
S113039080E00E94050180E00E943801682F6367B5
S11303A080E00E94050160E787E00E9405010E9449
S11303B01501289A82E38A95F1F7299ADF91CF9162
S11303C00895289880E00E943801682F6D7F80E0AE
S11303D00E940501089580E00E943801682F636738
S11303E080E00E94050160E787E00E9405010E9409
S11303F01501289A82E38A95F1F70895FC0195E0A6
S113040080E0219182279150E1F708950F931F9383
S1130410CF93DF93E801888369834A83F90180815C
S11304208B8381818C83C8010E94FE018D83DF91BF
S1130430CF911F910F9108950F931F93CF93DF9343
S1130440CDB7DEB728970FB6F894DEBF0FBECDBF89
S113045090911A019F8398878E010F5F1F4F9E0111
S1130460295F3F4F0E940602C8010E94910128960D
S11304700FB6F894DEBF0FBECDBFDF91CF911F91B1
S11304800F910895EF92FF920F931F93CF93DF93F1
S113049000D000D000D0CDB7DEB7F82E8B010E947B
S11304A0E500882321F1CE0101960E942401EA800F
S11304B0EF1019C0CE0101960E94FE019E8198138F
S11304C014C08C81F80180838D81818389EF90E051
S11304D00197F1F700C000004B8169818E2D0E94C5
S11304E01C0281E005C080E003C080E001C080E020
S11304F026960FB6F894DEBF0FBECDBFDF91CF9125
S11305001F910F91FF90EF900895DF92EF92FF9269
S11305100F931F93CF93DF9300D000D000D0CDB7BB
S1130520DEB7D82E8B017A010E94E500882399F06A
S1130530CE0101960E9424018A818D110AC08C810A
S1130540F80180838D8181838B81F701808381E031
S113055003C080E001C080E026960FB6F894DEBFA9
S11305600FBECDBFDF91CF911F910F91FF90EF9000
S1130570DF900895DF92EF92FF920F931F93CF9332
S1130580DF93CDB7DEB729970FB6F894DEBF0FBE61
S1130590CDBFF82E9A0180911C01883C10F0109276
S11305A01C01E0901C0181E08E0D80931C018E01E2
S11305B00F5F1F4F4E2D8F2D0E9406021AE001E09F
S11305C0D12CCE0101960E949101409A83ED90E3D3
S11305D00197F1F700C00000409883ED90E3019784
S11305E0F1F700C00000AE01475F5F4FBE01695FD5
S11305F07F4F8F2D0E948502882371F090911A01FC
S1130600202F8F8189132D2D8885891305C02223DE
S113061019F08985E81621F0115099F680E001C09F
S113062081E029960FB6F894DEBF0FBECDBFDF91EF
S1130630CF911F910F91FF90EF90DF900895F89460
S1130640389A40980E94DD0083EC99E00197F1F715
S113065000C0000080E00E9441010E94D6000E9478
S11306605E0010922A011092290114BEE0E6F0E027
S113067088E1808385E48083789483B7817F846074
S113068083BF83B7816083BF0895909324018093CF
S11306902301109226011092250116BC84B58260B4
S11306A084BD85B5836085BD8AE087BDEEE6F0E054
S11306B0808182608083089510926E0014BC15BC02
S11306C008950E945C030E94E1010E945300A895D2
S11306D07894889508951F920F920FB60F92112463
S11306E02F933F934F935F936F937F938F939F9336
S11306F0AF93BF93EF93FF938091250190912601CF
S11307000196909326018093250120912501309133
S1130710260180912301909124012817390711F4AF
S11307200E946103FF91EF91BF91AF919F918F91CF
S11307307F916F915F914F913F912F910F900FBED9
S11307400F901F901895EC010E945C038881882308
S113075029F090E090932A018093290188EC90E09D
S11307600E94450360E08091290190912A010E9432
S11307709B00F8CF1F920F920FB60F9211248CE0BA
S113078090E00E9445030E94EB01409A81E28A9521
S1130790F1F70000409867E271E081E00E944202B4
S11307A08823C9F387E291E00E94A3030E941F03F8
S11307B0FFCF249884B18C6284B985B1846185B9F2
S11307C085B1877D85B980E58CBD1DBC0895442322
S11307D081F0282FA62FB72FE82FF92F81918EBDF6
S11307E00DB407FEFDCF8EB58D938E2F821B84171B
S11307F0A8F30895662361F0282FE82FF92F81913B
S11308008EBD0DB407FEFDCF8E2F821B8617B8F365
S113081008958EBD0DB407FEFDCF8EB50895CF9318
S1130820DF9300D0CDB7DEB71A828983AE014F5F64
S11308305F4F61E080E00E94BA0291E0811101C043
S113084090E0892F0F900F90DF91CF9108950E942F
S1130850E101E89A4098E09A789483B7816083BF75
S1130860889583B78E7F83BF08951F920F920FB62A
S11308700F9211242F933F934F935F936F937F9322
S11308808F939F93AF93BF93EF93FF93E8988091D7
S11308901D0191E0980F90931D010E940F0488237D
S11308A0B9F0409A87EA91E60197F1F700C0000099
S11308B0409887EA91E60197F1F700C00000409A5A
S11308C087EA91E60197F1F700C0000040980BC059
S11308D0409A9FE52AEE80E0915020408040E1F765
S11308E000C0000040980E942704FF91EF91BF913F
S11308F0AF919F918F917F916F915F914F913F91B4
S11309002F910F900FBE0F901F901895F894FFCF62
S113091084B7C292B19888B68090A089CC83C8E885
S10F0920F1F1F1F1F1F0F0F0F0F08100E1
S9030000FC
