:100000000C9434000C9498020C9451000C94510000
:100010000C9451000C9451000C9451000C9451001C
:100020000C9451000C9451000C9451000C9451000C
:100030000C9451000C9451000C9451000C945100FC
:100040000C9451000C9451000C9451000C945100EC
:100050000C9451000C9451000C9451000C945100DC
:100060000C9451000C94510011241FBECFEFD8E026
:10007000DEBFCDBF11E0A0E0B1E0E0EEF5E002C0F0
:1000800005900D92AC30B107D9F721E0ACE0B1E0BA
:1000900001C01D92A131B207E1F70E9453000C94F8
:1000A000EE020C9400000E94E902089584B183607E
:1000B00084B90E941E022898299A089580910E0101
:1000C000811107C029988FEF0E944E02299A8074EF
:1000D000089580E008951F93CF93DF93EB01142FD1
:1000E00029988F7180620E944E02612FCE010E947A
:1000F0003F02299ADF91CF911F910895CF93DF930B
:100100001F92CDB7DEB7698341E0BE016F5F7F4FBD
:100110000E946B000F90DF91CF91089580910E01A6
:100120008111FCCF299881EE0E944E02299A2998CC
:1001300082EE0E944E02299A0895CF93DF93EC013C
:10014000299881E60E944E0246E0BE01CE010E943F
:100150002C02299A60E787E00E947E00DF91CF9110
:10016000089529988F710E944E028FEF0E944E02CF
:10017000299A0895CF93C82F60E084E00E947E0002
:1001800062E085E00E947E0066E081E10E947E00E0
:1001900066E086E00E947E0060E081E00E947E00D2
:1001A00061E082E00E947E0063E083E00E947E00C6
:1001B00060E08CE10E947E00CC2369F045E065E0C0
:1001C00071E08AE00E946B0045E060E071E080E150
:1001D0000E946B000CC045E065E071E080E10E9488
:1001E0006B0045E060E071E08AE00E946B0080E017
:1001F0000E94B100682F636780E00E947E0060E784
:1002000087E00E947E000E948E0010920E01289AC4
:10021000CF910895CF93DF93EC0180910E0181116E
:10022000FCCF28980E94B100682F626780E00E948E
:100230007E0080E00E94B1008E78682F606780E0C9
:100240000E947E0060E787E00E947E00299881EE90
:100250000E944E02299A82E38A95F1F7299880EA52
:100260000E944E0266E0CE010E943F02299A289A1F
:1002700095E09A95F1F7289880E00E94B100682FE8
:100280006D7F80E00E947E0080E00E94B100682FB8
:10029000636780E00E947E0060E787E00E947E0046
:1002A0000E948E00289A82E38A95F1F7409A87EAA5
:1002B00091E60197F1F700C000004098299ADF917C
:1002C000CF91089580E00E94B100682F6D7F80E09B
:1002D0000E947E000895FC0195E080E02191822734
:1002E0009150E1F708950F931F93CF93DF93E801A7
:1002F000888369834A83F90180818B8381818C8320
:10030000C8010E946B018D83DF91CF911F910F91E6
:1003100008950F931F93CF93DF9300D000D000D0A8
:10032000CDB7DEB78E010F5F1F4F2AE031E00E948C
:10033000730126960FB6F894DEBF0FBECDBFDF91D6
:10034000CF911F910F910895EF92FF920F931F93FA
:10035000CF93DF9300D000D000D0CDB7DEB7F82E1A
:100360008B010E945E008823F1F0CE0101960E946D
:100370009D00EA80EF1013C0CE0101960E946B0130
:100380009E8198130EC08C81F80180838D818183BA
:100390004B8169818E2D0E94890181E005C080E03A
:1003A00003C080E001C080E026960FB6F894DEBF5F
:1003B0000FBECDBFDF91CF911F910F91FF90EF90B6
:1003C0000895FF920F931F93CF93DF9300D000D037
:1003D00000D0CDB7DEB7F82E9A0180910C01883C91
:1003E00010F010920C0140910C0181E0840F809379
:1003F0000C018E010F5F1F4F8F2D0E9473011AE0B9
:10040000CE0101960E940A0187EA91E60197F1F771
:1004100000C000006FE071E08F2D0E94A401115018
:1004200079F780E026960FB6F894DEBF0FBECDBFF9
:10043000DF91CF911F910F91FF900895249884B17F
:100440008C6284B985B1846185B985B1877D85B9B0
:1004500080E58CBD1DBC0895442381F0282FA62F74
:10046000B72FE82FF92F81918EBD0DB407FEFDCF78
:100470008EB58D938E2F821B8417A8F30895662363
:1004800061F0282FE82FF92F81918EBD0DB407FE62
:10049000FDCF8E2F821B8617B8F308958EBD0DB445
:1004A00007FEFDCF8EB50895CF93DF9300D0CDB773
:1004B000DEB71A828983AE014F5F5F4F61E080E053
:1004C0000E94E10191E0811101C090E0892F0F901D
:1004D0000F90DF91CF91089510920D010E94560068
:1004E00083EC99E00197F1F700C0000081E00E94E1
:1004F000BA00389A409852985A9AE9E6F0E080811A
:100500008260808383B7817F846083BF389A4098FC
:10051000789408950E946201E89A4098E09A78944D
:1005200083B7816083BF889583B78E7F83BF08952B
:100530001F920F920FB60F9211242F933F934F9358
:100540005F936F937F938F939F93AF93BF93EF933B
:10055000FF93E89880910D0191E0980F90930D0121
:100560000E9454028823B9F0409A87EA91E60197E5
:10057000F1F700C00000409887EA91E60197F1F793
:1005800000C00000409A87EA91E60197F1F700C0A9
:10059000000040980BC0409A9FE52AEE80E0915001
:1005A00020408040E1F700C0000040980E948A028D
:1005B000FF91EF91BF91AF919F918F917F916F913B
:1005C0005F914F913F912F910F900FBE0F901F9011
:1005D00018950E946C020E948A02FFCFF894FFCF08
:0C05E000F1F1F1F1F1F0F0F0F0F08081A9
:00000001FF
