:100000000EC015C014C013C012C011C010C00FC064
:100010000EC00DC00CC00BC00AC009C008C011241E
:100020001FBECFE5D2E0DEBFCDBF1CD045C0E8CFBC
:1000300080E487B984E886B9089597B183709C7F7E
:10004000982B97B9369A3699FECF84B195B1089519
:1000500081E0F3DF089583E0F0DF089586B38295B1
:1000600081700895E5DF87B3836087BBC098C1982E
:10007000BC98C49AF3DF8823A1F0C098E9DFEC01B3
:10008000EADF8C179D0710F4C19A01C0C1982FE3D5
:100090008DE093E0215080409040E1F700C00000E7
:1000A000E9CFC09A2FE382E49FE021508040904046
:0C00B000E1F700C00000DECFF894FFCFA5
:00000001FF
