S01400006E72665F746573745F6C69622E7372656315
S11300000C9434000C9449000C9449000C9449005D
S11300100C9449000C9449000C9449000C94490038
S11300200C9449000C9449000C9449000C94490028
S11300300C9449000C9449000C9449000C94490018
S11300400C9449000C9449000C9449000C94490008
S11300500C9449000C9449000C9449000C944900F8
S11300600C9449000C94490011241FBECFEFD8E032
S1130070DEBFCDBF11E0A0E0B1E0E0E2F3E002C0FA
S113008005900D92AA30B107D9F70E9454010C943F
S11300908E010C94000029988F710E9488018FEFC3
S11300A00E948801299A0895CF93C62F29988F71A9
S11300B080620E9488018C2F0E948801299ACF9126
S11300C00895FF920F931F93CF93DF93F62E172F6C
S11300D0042F29988F7180620E948801002349F0BF
S11300E0CF2DD12F10E089910E9488011F5F10133A
S11300F0FACF299ADF91CF911F910F91FF90089524
S113010045E08AE00E946100089545E0BC0180E179
S11301100E9461000895299882EE0E948801299A1C
S11301200895299881EE0E948801299A089565E02E
S113013071E080E00E94800080E00E944B00682F04
S1130140616080E00E94540080E00E944B00682FB0
S1130150626080E00E94540060E787E00E945400DF
S11301600E948B000E949100289A82E38A95F1F7FD
S11301700895289880E00E944B00682F6E7F80E0ED
S11301800E94540080E00E944B00682F626080E06F
S11301900E94540060E787E00E9454000E9491008E
S11301A082E38A95F1F708950F931F93CF93DF931A
S11301B0082F192F0E94B900299880EA0E9488010B
S11301C0C02FD12F10E089910E9488011F5F143045
S11301D0D1F7299A289A85E08A95F1F7289862E060
S11301E085E00E94540080E00E944B00682F6D7FE0
S11301F080E00E9454000E94970081E0DF91CF913B
S11302001F910F91089586E00E944B00682F66604D
S113021086E00E945400089586E00E944B00682FF7
S1130220677D86E00E945400089580E00E944B00A0
S1130230682F637F80E00E9454000895219A209AD9
S11302400E947E012898299A81EE94E00197F1F7A3
S113025000C000000E9403010E940C010E941501CD
S113026060E084E00E94540060E08CE10E9454004D
S113027062E085E00E94540064E081E10E94540041
S113028061E082E00E94540060E081E00E9454003A
S113029065E071E080E00E94800080E091E00E94CF
S11302A085000E9497000895CF93DF9300D000D07B
S11302B0CDB7DEB70E941E012FEB87E299E02150F3
S11302C080409040E1F700C0000080E0898311E0A5
S11302D0180F1A8392E0980F9B838D5F8C83CE0155
S11302E001960E94D4002FE38DE093E021508040DA
S11302F09040E1F700C00000812FE8CF84B1837CF7
S113030084B984B18C6284B980E58CBD1DBC089528
S11303108EBD0DB407FEFDCF8EB50895F894FFCFC2
S10D0320F1F1F1F1F1F0F0F0F0F06A
S9030000FC
